:020000022000DC
:1060000000000120756302005D6302005F6302000F
:106010006163020063630200656302000000000028
:10602000000000000000000000000000E5B40200D5
:10603000696302000000000005B502006D63020004
:10604000E17E02006F630200F58002006F630200D0
:106050006F6302006F630200717F02006F630200D2
:106060006F6302006F6302006F6302006F630200E0
:106070006F6302006F6302006F6302006F630200D0
:106080006F63020005B302006F6302006F630200DA
:106090006F6302006F63020035AA02006F630200A3
:1060A0006F6302006F6302006F6302006F630200A0
:1060B0006F6302006F630200000000000000000038
:1060C0006F6302006F6302006F6302006F63020080
:1060D0006F6302006F6302006F6302000000000044
:1060E00000000000000000000000000000000000B0
:1060F00000000000000000000000000000000000A0
:10610000000000000000000000000000000000008F
:10611000000000000000000000000000000000007F
:10612000000000000000000000000000000000006F
:10613000000000000000000000000000000000005F
:10614000000000000000000000000000000000004F
:10615000000000000000000000000000000000003F
:10616000000000000000000000000000000000002F
:10617000000000000000000000000000000000001F
:10618000000000000000000000000000000000000F
:1061900000000000000000000000000000000000FF
:1061A00000000000000000000000000000000000EF
:1061B00000000000000000000000000000000000DF
:1061C00000000000000000000000000000000000CF
:1061D00000000000000000000000000000000000BF
:1061E00000000000000000000000000000000000AF
:1061F000000000000000000000000000000000009F
:10620000354936480A1A02D0072291438D4634494F
:1062100034480A1A06D00722914381F309880222E2
:1062200082F3148830483149314A00F044F831484B
:106230003149324A00F03FF831483249324A00F0E1
:106240003AF832483249334A00F035F83248334997
:10625000334A00F030F833483349344A00F02BF821
:1062600033483449344A00F026F83448344900228F
:1062700000F02CF833483449002200F027F8334866
:106280003349091A082902DB002202604160314AC1
:1062900090471F481F49884205D00268043003B464
:1062A000904703BCF7E700208646EC46002000211B
:1062B000294A9047FEE7884207D0521A05D0037852
:1062C00001300B700131013AF9D17047884202D098
:1062D00002700130FAE770470000012000E0002062
:1062E00000000120000001204CE40200982A002058
:1062F000F82A0020D4630200D463020094CF020085
:106300004CE40200982A0020982A002090D0020035
:1063100090D0020090D0020090D0020090D00200F5
:1063200090D0020090D0020090D002004CE4020015
:10633000ACE40200F82A0020F82A0020F82A002005
:10634000A09E0020A09E0020A09E0020A09E0020D5
:10635000A0BE00209D630200DD910200FEE7FEE783
:10636000FEE7FEE7FEE7FEE7FEE7FEE7FEE7FEE705
:10637000704700BF1048804710484FF0070188431E
:1063800085460F4880470F48016841F4700101605D
:10639000BFF34F8FBFF36F8FFFF732BF0A480B4930
:1063A0000B4A884207D0521A05D0037801300B708F
:1063B0000131013AF9D170477163020000000120F8
:1063C0005D79020088ED00E090D00200982A00205C
:0463D000982A0020E7
:1063D4007047000007B5044B0093044A402300F0C3
:1063E40032F803B05DF804FBF5630200F92A0020DB
:1063F4002DE9F84389461446B2B10F4B0F4E0325DD
:10640400002743F00108224609EB0701002003F0AE
:1064140071F80744241A48B933782BB14FF47A4001
:10642400C047013D02D13570BDE8F88301233370C4
:10643400002CE8D1F8E700BF90D00200F82A002031
:10644400704703F08BB8F0B595B01C461646084665
:106454000D4601F0D9F91A9B0D93CDE90864002487
:106464002346082205A928460A948DF82C400C944A
:1064740001F0E7F9079B0293069B03939DF8143000
:106484008DF8114003F00302012A1DD1BDF8144018
:10649400059EC3F3C203C4F383148DF81030A20025
:1064A40008230EA9284601F0CCF9C6F3952608ABBB
:1064B4000093224602AB0EA9304600F05DFB28464D
:1064C40001F0A6F915B0F0BD022AF8D1BDF81640C6
:1064D400C3F3C203A4098DF810300827082C2646FC
:1064E40028BF08263B4632460EA9284601F0A9F9E2
:1064F400A41B08AB02AA31460EA8374400F0A0FB47
:10650400002CEBD1DBE7000008B5FFF79AFF04216C
:10651400034800F09FFA034B01225A7108BD00BFE3
:1065240080D00200982A0020037813F0040216D0C9
:1065340003F00303012B03D0022B09D00120704781
:106544000A6800880232C0F3831002440A60F5E747
:106554000B684288023303EB92130B60EEE710469C
:10656400704700002DE9F04F87B000230446851CD6
:106574000DF107000F4690468DF8073000F00EFE2F
:10658400454806683E60D0E90132134401339B1B41
:10659400824600F21C4600F5836900F21447AB42C0
:1065A4001BD30022B8F1000F70D0052363F3070258
:1065B40064F38912DAF80010DAF808309DF807005D
:1065C4000B4003330D444AF82320CAF8005000F06E
:1065D40009FE012007B0BDE8F08F0121304600F02C
:1065E4005EFE484600F071FE384600F06EFEDAF8B2
:1065F4000400DAF808B0029000EA0B0003300AEB5A
:10660400800002A9FFF790FF029B50BB0BEA030234
:106614000AEB820203F1020CD2680392013303EA0B
:106624000B0B0AEB8B0B02F00302012ACDF808C016
:10663400DBF80C1022D0022A16D08346384600F02C
:1066440047FE10B1029BCAF804305946304600F0A8
:1066540026FEDAE901231344DAF8002001339B1AF9
:106664009DE70BEA0300C9E7BDF80E309B0903332D
:106674004FEA114B0CEB93030293DFE7BDF80C30A8
:10668400C3F383134FEA114B6344F5E7062363F323
:10669400070264F39F528DE70C2C00200B4B0C482F
:1066A400FF2210B59A600022C3F81824C3E900221F
:1066B400C3F8142483F8202401F05FF8044610B9C9
:1066C400044801F0C8F8204610BD00BF0C2C00207F
:1066D400FCCF0200B4D0020030B50A4C71B10A4AB2
:1066E4000A49121BD20800239A4201D1002030BD6E
:1066F40031F82350854202D00133F5E7034654F8BC
:106704003300F4E710D0020080D00200982A002061
:10671400094B013903EBC000032909D8DFE801F074
:106724000A020406042070470079704740797047D4
:10673400002070470220704710D00200034BD3E9B9
:106744000030C31A58425841704700BF0C2C002037
:106754002DE9F04387B0FFF7F1FF0646002840F02B
:10676400FB807E4DC5F81804BFF34F8F6868AC6892
:1067740002902040033005EB800002A9FFF7D4FE0D
:10678400029B18B1D5F81824002A5FD004EA03024A
:10679400991C013305EB8202234005EB8303D26885
:1067A400DB68049302F00303022B0392029162D18B
:1067B400BDF80E306A484FEA9318B8F1500FC1463D
:1067C40028BF4FF0500969F38F1309F10801ADF8A0
:1067D4000E3000F0EAFF0746002800F0A88001F020
:1067E40013F803A900230822384601F020F802997F
:1067F40024EA01060136B600B14535D95FFA89F9B4
:106804007EB3F6B2A9EB0609214003315FFA89F49D
:10681400B146544E05EB810108234A46384601F03F
:1068240006F836B109F1080322463146384600F02D
:10683400FEFF029B08F1030803EB98030293D5F8CB
:106844001834002B4BD1D5F810445BE02A689A42E7
:1068540004D86A60304607B0BDE8F08304EA030058
:1068640088E740493446D7E72140033108234A46A4
:1068740005EB8101DAE7012B59D1BDF80C3038481A
:10688400C3F38311062928BF062161F3891302315A
:106894008900ADF80C3000F088FF0746002846D088
:1068A40000F0B2FF0023082203A9384600F0BFFF1E
:1068B4000026BDF80C20C2F38312B300964203F104
:1068C4000803BCD202994A1C21400331029205EB11
:1068D40081010422384600F0AAFF0136E9E7384670
:1068E40000F096FFFFF72AFF80F00100C6B2B1E77F
:1068F400E3685B7923B1236839461B6820469847CF
:10690400E3681C68002CF3D1384600F081FF0DF1D8
:1069140007008DF8074000F041FCD5F818340BB996
:10692400029B6B609DF8070000F05CFCDAE7D5F889
:10693400104454B90C4B0D480D49C01AC00800044A
:1069440040F0020000F06EF8CCE7236820469B6814
:106954009847E3681C68ECE700267BE70C2C0020D2
:10696400FCCF0200182C002010D0020038D0020006
:10697400C0D002002DE9F74F284C80460F469246BE
:1069840001A9012218469B46D4F80890FFF7EAFDB6
:1069940080B3019D0026A91C5E4506EB010233D19C
:1069A40000211F4800F050FC80F310006A1C02EA2A
:1069B400090204EB8202000405EA0903033340EAF6
:1069C4001840D06014F8232068F3C50204F823208B
:1069D40034F8232066F3891224F8232054F8232062
:1069E40067F39F2244F8232002F0F80242F00102E8
:1069F40004F8232094F820341BB1FFF7A9FE0028E3
:106A0400FBD103B0BDE8F08F09EA020204EB820275
:106A14005AF82630D3600136BEE700BF0C2C0020A4
:106A24002830002000231A46FFF7A4BF07B501232E
:106A3400019201AAFFF79EFF03B05DF804FB07B5BE
:106A4400CDE9002302236A46FFF794FF03B05DF803
:106A540004FB000030B50F49D1F81024002314467C
:106A64003CB9C468237152B9C1F8100422601846B5
:106A740030BDE46825799D4206D02468F0E7D268E9
:106A8400116821601060F2E701330A2BE7D14FF05F
:106A9400FF33ECE70C2C0020094A38B50123D2F867
:106AA400104482F820341D4604B938BDE3685D7192
:106AB400236820465B689847E3681C68F4E700BFD6
:106AC4000C2C0020037A052B10B50C460FD0437A0A
:106AD40023B1084A0849204600F05DFC07492046D6
:106AE40000F059FC2046BDE8104000F049BC002AE3
:106AF400F8D0F3E70BD1020010D10200B7E1020095
:106B0400C38873B504460D4633B1144A0092144940
:106B1400144A284600F03FFC217A05291CD0637AE8
:106B24004BB1A088FFF7F4FD0F4B104953F8202018
:106B3400284600F030FC227A0D4BA08853F82260DE
:106B44000021FFF7C9FD0B4903463246284602B02F
:106B5400BDE8704000F01FBC02B070BD0BD1020054
:106B64001BD1020013D10200D8D0020010D10200C0
:106B740040D1020033D102002DE9F04385B01F4615
:106B84000C9D002306460C46904695F80C902B73FA
:106B940029463846FFF7B4FFB8F1060F09D8DFE8F5
:106BA40008F00412181F283340003146284600F02C
:106BB400F2FB002229463846FFF784FF85F80C9043
:106BC40005B0BDE8F08322683146284600F0E3FBB7
:106BD400EFE7D4E900233146284600F0DCFBE8E780
:106BE400A36800933146D4E90023284600F0D3FB80
:106BF400DFE7E3680193A36800933146D4E90023F7
:106C0400284600F0C8FBD4E723690293E3680193A4
:106C1400A36800933146D4E90023284600F0BBFB67
:106C2400C7E76369039323690293E3680193A36845
:106C340000933146D4E90023284600F0ACFBB8E7C2
:106C440008292DE9F84F80460E4617461C4636D8CB
:106C5400002593F80C901D7319461046FFF750FF5A
:106C6400DFF87CA0DFF87CB0AE422AD918F8052002
:106C74005946204600F08FFB0135082DF4D1164902
:106C8400DFF864B0204600F086FB0025AE421DD933
:106C940018F805A0504605F0DBFC002814BF524646
:106CA4002E225946204600F076FB0135082DEDD101
:106CB400012221463846FFF705FF84F80C90BDE811
:106CC400F88F5146204600F066FBD5E7034920467D
:106CD40000F061FBE9E700BF06D1020004D1020025
:106CE40002D10200FCD0020008D102001FB500212D
:106CF400039001AA44F20100CDE9011100F004F867
:106D040005B05DF804FB000010B572B6FFF7C4FED1
:106D1400FFF71EFD0028FBD1104B114C1149E41A5A
:106D2400E408240444F00100FFF77CFE0E4B1B68CA
:106D3400DB0700D500BE0D4944F00200FFF772FEE8
:106D4400BFF34F8F0A490B4BCA6802F4E062134346
:106D5400CB60BFF34F8F00BFFDE700BF10D0020030
:106D640038D002009FD10200F0ED00E0ABD1020068
:106D740000ED00E00400FA0549B152B1531E1A4077
:106D840007D1826001608380C260104670470E2084
:106D940070470920704710B58468C2688388121B45
:106DA400934208D3C26813400268D154C3680133C4
:106DB400C360002010BD0420FCE78268C3689A42C7
:106DC4000AD08268838813400268D35C0B7083689E
:106DD40001338360002070470520704710B505F02B
:106DE4009FFB037B23B183680068BDE8104018470C
:106DF40010BD00207047000073B50E4604681546A8
:106E0400D2B1237BD3B96168C1B91022204605F001
:106E140093FC321C0A4BA56018BF012200934FF467
:106E24007A712346074805F039FA0028606014BFD8
:106E340000200E2002B070BD0720FBE70820F9E710
:106E4400E16D020004D102002DE9FF4144680546CA
:106E54000F461646002C4ED0037BA3B92E60EFF3E9
:106E64000586BEB94FF002083A46CDF80080334695
:106E74000421204605F02CFA012807462ED00420D0
:106E840004B0BDE8F081204605F03EFB0028E5D0C3
:106E94000020F5E70026009603AB3A460921204678
:106EA400039605F015FA0128E9D104F01DFF0096B8
:106EB400024603AB0621204605F00AFA0128DED17A
:106EC400039B43B10D4B4FF080525A6040BFBFF358
:106ED4004F8FBFF36F8F01232B73D9E704F0FEFEAE
:106EE400CDF80080024633463946204605F0F0F9D5
:106EF4000128F0D0C3E70820C2E700BF00ED00E09E
:106F04001FB50446406828B3EFF30583CBB10022D4
:106F1400009203AB0821039205F0DAF9012801D0AD
:106F240004200CE0039B43B10B4B4FF080525A609A
:106F340040BFBFF34F8FBFF36F8F0020207304B0A7
:106F440010BD0222009203211A4605F0C1F901285E
:106F5400F3D0E5E70820F2E700ED00E00648074A31
:106F640003780749D35C012213B1043001F0DCBD7E
:106F74000C3001F057BB00BFA02A00201C310020B8
:106F8400F03000200648074A03780749D35C012201
:106F940013B1043001F078BD0C3001F0EDBA00BF3C
:106FA400A02A00201C310020F130002037B50578DC
:106FB400012D05D0002D30D0022D23D003B030BDDB
:106FC40043681C4C19782046FFF7E5FE78B18DF82C
:106FD40000500190184B68461B689847A168E36805
:106FE400A2885B1A9A4209D3FFF7B8FFE6E7A268C2
:106FF400E3689A42F2D08DF80000EBE70F4B0122D0
:107004001A70DBE7C3688DF800500193FFF7A6FF01
:10701400094B68461B689847D0E709490948FFF7B8
:10702400CCFE10B9FFF7AEFFC8E703238DF800309C
:10703400EEE700BFCC300020C8300020DC30002058
:10704400F1300020E0300020F0B51F46234B89B01A
:1070540006461A600C4600293DD08A8820480968F3
:10706400FFF78AFE002834D1A289A1681D48FFF7E2
:1070740083FE00282DD11C4D0FCD6C460FC495E81E
:107084000F0084E80F0073690693337C174A18488D
:107094008DF81C70003318BF01238DF81430737CF5
:1070A400002B14BF0E2300238DF81530F3680293D0
:1070B400B36803933368019369467368009300F0DF
:1070C40073FE30B90B4B18703368013301D0FFF7EE
:1070D40045FF09B0F0BD0720FBE700BFC830002022
:1070E400CC300020E0300020B8D10200B16F0200A3
:1070F400A02A0020DC30002070B5084C0146084866
:107104002678FFF75AFE054636B100232370FFF7B1
:1071140025FF08B1FFF7EAFD284670BDDC300020EA
:10712400CC30002010B501460E48FFF734FE04466B
:10713400A8B90D480D4A0378D35C63B1043001F05B
:10714400E7FC60B90A490748FFF737FE38B9BDE8DC
:107154001040FFF717BF0C3001F058FAF1E7204652
:1071640010BD00BFE0300020A02A00201C31002008
:10717400F130002008B50748074A0378D35C23B1EF
:10718400043001F01DFC002008BD0C3001F090F922
:10719400F9E700BFA02A00201C31002070B5EFF3EE
:1071A400108672B60C4A946801239CB993600B4B09
:1071B4000B4DD3F8801029401160C3F88050D3F8E8
:1071C400841051604FF0FF32C3F88420047006B974
:1071D40062B670BD0370FAE7F430002000E100E00D
:1071E400FC06FFBD084B9A6810B55AB150B9EFF3CD
:1071F400108172B6054A1C6814605C68546098601B
:1072040001B962B610BD00BFF430002000E100E017
:1072140001F01F024B090121914000EB830000F0B3
:107224001DB801F01F0301229A404B0900EB8300B3
:10723400D14300F029B84B0901F01F0150F8230095
:10724400C84000F00100704750E8002F0B4640E8AA
:10725400003C9CF0000FF7D11046704750E8003F07
:1072640043EA010240E8002C9CF0000FF6D11046DE
:10727400704750E8002F02EA010340E8003C9CF00C
:10728400000FF6D11046704750E8003F03EA0102B0
:1072940040E8002C9CF0000FF6D11046704750E8EF
:1072A400003F03EB010240E8002C9CF0000FF6D1F4
:1072B4001046704750E8003FA3EB010240E8002C61
:1072C4009CF0000FF6D1104670470121FFF7C6BFAE
:1072D4000021FFF7CEBF10B590B1D0E901230168BA
:1072E4009B1ADBB20A60013BDBB2FF2B026802D1BE
:1072F4000020107110BD11684C1C14600B70F2E773
:107304000E20F7E737B5054600240DF107008DF888
:107314000740FFF743FF2A686B68116899420ED94A
:10732400481E106011F8014CEB68298A01FB0434F3
:10733400AB6811791B1ADBB2994238BF13719DF8FF
:107344000700FFF74FFF204603B030BD37B50546B1
:1073540000230DF107000C468DF80730FFF71EFFE0
:107364002A681368591C1160E968641A298AB4FBF5
:10737400F1F41C709DF80700FFF734FF03B030BD33
:10738400826810B504462AB14369016800699847C8
:107394000023A36010BD0EB403B5039921B104AB5F
:1073A40001AA019300F06CF802B05DF804EB03B09D
:1073B4007047826830B40468551C8560A154D0E9D4
:1073C40001329A4202D330BCFFF7DABF30BC7047B7
:1073D4002DE9F84F9946DDE90A4317468246884667
:1073E4000A460126BA420FD24E4538BF4E4613F024
:1073F400010B01D164B900240125B9F1010F1AD997
:1074040009F1FF397D43F8E7B2FBF7F20136E9E70A
:107414009B070ED5B9F1000F0CBF30252025A642DD
:10742400EAD2013C29465046FFF7C3FF002CF6D1AF
:10743400E1E72025F3E7B8FBF5F39F42E2D9DFF853
:107444003C90B8FBF5F3504619F8031005FB13887C
:10745400FFF7AFFFB5FBF7F3BD4207D2BBF1000F57
:1074640002D00CB1A64203D3BDE8F88F1D46E8E76D
:1074740020215046013CFFF79CFFF2E798D602001A
:107484002DE9F74F054617468846002900F031815B
:1074940018F8011B49B92B7B002B00F02A812846E0
:1074A40003B0BDE8F04FFFF76BBF252940F0C08063
:1074B400002698F800302D2B424608F1010823D00D
:1074C400302B24D02B2B25D000242A2B02F10101B0
:1074D40023D13B681A1D1B683A601C440A46137882
:1074E4002E2B26D101324FF0000A104610F8011B52
:1074F400A1F1300CBCF1090F1DD80A2303FB0A13B8
:10750400A3F1300A0246F0E746F00106D1E746F05F
:107514000206CEE746F00406CBE711F8013CA3F1DE
:1075240030000928DBD80A2202FB0434303C0A4626
:10753400CBE74FF0000A12F8011B01F0FB006828AA
:107544009046F8D069290ED04AD8582964D006D874
:1075540025296DD098F80030002B99D19BE7632939
:1075640062D06429F6D13A68D2F80090111D89EAF4
:10757400E9723960A2EBE9724FF0010B092A5BDC76
:10758400D34538BFD3462CB1B9F1000F01DB7107E5
:1075940000D5013CB20702D5BAF1000F04D0F307BD
:1075A40002D4002C4ED10024B9F1000F52DAC9F1F3
:1075B40000092D212846FFF7FCFE06F00302022AEB
:1075C40005D1BAF1000F02D1002C47D10024CDE936
:1075D400004653460A2249462846FFF7F9FEB9E712
:1075E40073294CD014D87029B4D13B681A1D3A6061
:1075F400302128461C68FFF7DCFE78212846FFF777
:10760400D8FE00220823CDE9003221461022E3E708
:1076140075292BD078299DD139680A1D3A60CDE9A6
:1076240000465346102228E03B681A1D19783A6038
:107634002846FFF7BEFE8DE70A230BF1010BB2FBD0
:10764400F3F29BE7A345AFD220212846013CFFF784
:10765400B0FEA6E77007B0D52B21ABE7A345B6D2A1
:1076640030212846013CFFF7A4FEADE73968CDE997
:1076740000460A1D3A6053460A220968ACE73B6893
:107684001A1D3A60F107D3F8009020D4B9F1000F25
:1076940025D0484605F0A5F80646B44200D9C4B939
:1076A40009F1FF3920E028460136FFF782FE19F878
:1076B40006100029F7D1A642BFF44CAF002C3FF4CA
:1076C40049AF20212846013CFFF773FEF3E700266B
:1076D400EDE720212846013CFFF76BFEDDE74E462F
:1076E400DBE72846FFF765FE19F8011F0029F8D1EA
:1076F40030E703B0BDE8F08F2DE9F047B0F806900D
:107704004479D2F800A09DF8208009FB04F4043CDD
:1077140006460AEB0300A0420F4688BFA4EB030A07
:10772400191DC2F800A0B1FBF9F509FB15114DB9FB
:10773400A9EB0104544528BF5446BAF1000F04D103
:10774400BDE8F0873668013DF1E704317B19701814
:107754002246B8F1000F0ED001461846AAEB040ADF
:1077640004F0C1FFD145254436684C464FF0000172
:1077740028BF5446E1E71946F0E7FFF7ACBDF8B57A
:1077840046790146721E0546002393422D6803D3B1
:107794000024A64202D8F8BD0133F6E70F68284654
:1077A400FFF7D4FD01343946F3E72DE9F843068A9F
:1077B400CD1C0746FFF7A6FD043E35440446B5FB41
:1077C400F6F5F0B14FF48073EDB28380C680013DCD
:1077D400076081464FF00008A84512D23846FFF7EB
:1077E40091FD064648B163790133637108F10108DC
:1077F400C9F8000007608146EEE72046FFF7BFFFA7
:1078040034462046BDE8F88301210430FFF747BD24
:1078140010B5012104460430FFF74CFD10F0FF0FB2
:1078240004D12046BDE81040FFF7A9BF10BD1FB525
:1078340003920022009203AAFFF75EFF05B05DF8F1
:1078440004FB1FB503920122009203AAFFF754FF21
:1078540005B05DF804FB836800225A609A60C3E9AE
:107864000422DA601A6070470B684A6843609342E6
:1078740008BF0023016008BF43607047436843B1F9
:107884000268916852680B449342436004BF00232A
:107894004360704710B50D49A1F59472914201D827
:1078A40000200FE08B1ADB1003EBD3735B1002EBA9
:1078B400C30452F83330834205D802D204F10802DB
:1078C400ECE7606810BD2146E8E700BFECD7020092
:1078D40008B5FFF7DFFF024B002808BF184608BDB4
:1078E400B1D602000C4B1B78062B10D10B4B1B6836
:1078F4001A070CD10A4B186800F0F003302B08D09B
:1079040000F0E000A0F140035842584170470020C5
:1079140070470120704700BFE00F00F0E40F00F053
:10792400E80F00F0094B1B78062B0CD1084B1B68A1
:107934001A0708D1074B186800F0F000A0F13003D3
:107944005842584170470020704700BFE00F00F0D4
:10795400E40F00F0E80F00F008B5FFF7C3FF28B10B
:107964007D4B7E4A1B68C3F304231360FFF7DAFFE1
:1079740010B17B4B7B4A1A60FFF7B4FF28B17A4BF6
:107984007A4A1B68C3F342331360FFF7CBFF20B17D
:10799400774AD36823F08073D360FFF7A3FF40B125
:1079A4004FF080430022C3F80C21C3F81021C3F820
:1079B4003825FFF7B7FF10B16E4B03221A60FFF7AB
:1079C400B1FF40B16C4B05221A6001229A67002274
:1079D4009A603F225A60694B1B78062B50D1684B42
:1079E4001B6819074CD1674B1B6803F0F003502B3D
:1079F40046D14FF08052644BD2F80414C3F82015DA
:107A0400D2F80814C3F82415D2F80C14C3F82815B6
:107A1400D2F81014C3F82C15D2F81414C3F8301586
:107A2400D2F81814C3F83415D2F81C14C3F840154E
:107A3400D2F82014C3F84415D2F82414C3F8481516
:107A4400D2F82814C3F84C15D2F82C14C3F85015E6
:107A5400D2F83014C3F85415D2F83414C3F86015AE
:107A6400D2F83814C3F86415D2F83C14C3F8681576
:107A7400D2F84014C3F86C15D2F84424C3F8702526
:107A8400FFF730FF28B1414B414A1B6803F04F0315
:107A94001360FFF727FF48B14FF08043D3F8002469
:107AA400D20744BF6FF00102C3F80024394B1B68AE
:107AB400062B08D1384B1B68062B01BF374A1368C5
:107AC40043F480631360364AD2F8883043F4700379
:107AD400C2F88830BFF34F8FBFF36F8F4FF010237E
:107AE400D3F80022002A03DBD3F80432002B2FDA68
:107AF4002C4B0122C3F80425D3F80024002AFBD020
:107B04004FF010221521C2F80012D3F80024002AE5
:107B1400FBD04FF010231522C3F80422214B1A4640
:107B2400D3F800140029FBD00021C3F80415D2F8BF
:107B34000034002BFBD0BFF34F8F19491A4BCA688E
:107B440002F4E0621343CB60BFF34F8F00BFFDE745
:107B5400164B174A1A6008BD240300104035014033
:107B640074C007400DF0ADBA440200103C0500405B
:107B7400F0ED00E0A005004010560040E00F00F0DA
:107B8400E40F00F0E80F00F000C0004058020010BD
:107B9400E40E004030010010340100103C17004096
:107BA40000ED00E000E001400400FA05B42A0020E2
:107BB4000090D003014B185C704700BFA6DB0200A5
:107BC40038B5074C051E04F1080318BF1C4623688A
:107BD4002BB11A6822605B6828469847F7E738BDDE
:107BE4000831002020B9054B01225A70FFF7E8BF85
:107BF400012802D1014A9070F8E770470031002053
:107C040020B9034B01225A70FFF7DABF704700BF57
:107C14000031002038B50B4C237883B90A486360DF
:107C2400A3602361E36000F007F9054602F0E6FE75
:107C340008B900F00DF901232370284638BD8525C5
:107C4400FBE700BF00310020E97B020037B5184C88
:107C5400A378054603F0FF029BB110B143680120ED
:107C6400984700230DF107008DF80730FFF796FAC7
:107C7400E3689DF807000133E360FFF7B3FA03B04C
:107C840030BD0DF107008DF80720FFF787FA25B105
:107C9400226913463BB92A602561E368002BE7D1CA
:107CA40000F0EAF8E4E79D42F7D01B68F2E700BF72
:107CB4000031002037B50B4C00230DF107008DF87F
:107CC4000730FFF76BFAE368013BE360E56815B939
:107CD40000F0F8F8A5709DF80700FFF783FA03B0E9
:107CE40030BD00BF00310020012813B509D018B100
:107CF40003281CD002B010BD0F4B0122C3F8802012
:107D0400F8E70E4C00230DF107008DF80730FFF75C
:107D140045FA23780BB9FFF77DFFE3689DF8070068
:107D24000133E3600123A370FFF75CFAE2E700F09C
:107D34008FF8FFF7BFFFDDE700E100E0003100202E
:107D44001FB503788DF8003043680193037A8DF8EA
:107D54000830C3680393054A054B684653F821303D
:107D640052F82110984705B05DF804FB1431002047
:107D7400183100201FB503788DF800304368019353
:107D840083688DF80830C3680393054A054B684639
:107D940053F8213052F82110984705B05DF804FBE0
:107DA4001431002018310020F0B5194B067891F8F1
:107DB4001DE043F82620174B94460A6943F8262011
:107DC400154B03F806E00C4607460FCC89B06D4608
:107DD4000FC594E80F0085E80F000496BEF1000F6C
:107DE4000AD0BCF1000F0D4A694608BF0022381DB5
:107DF40000F01EFD09B0F0BDBCF1000F084A694651
:107E040008BF002207F10C0000F092FAF2E700BF6D
:107E140018310020143100201C310020457D02005F
:107E2400797D020000F18040002382B00360036882
:107E34000193019B02B07047044A137923B90121CD
:107E440010609180184670478520704720310020CB
:107E5400084B1A68D20706D4C02283F800230122F3
:107E6400C3F880211A604FF080430122C3F818251B
:107E7400704700BF00E100E038B54FF48270FFF7AF
:107E8400D1FF4FF080430222C3F804230A4AD0688A
:107E940040F08073D360094B1C6844F00101196001
:107EA4005D685968491BB1F50A5FFAD31C60044B3D
:107EB400D06001221A6038BDF0ED00E0001000E04F
:107EC40008000040044B01221A604FF08042D2F8AF
:107ED4001834DB03FBD470470C000040124B1B68C2
:107EE40010B573B14FF48070FFF79CFF4FF08043DF
:107EF4000122C3F808230D4B587910B95A711B6835
:107F040098470B4B1B6873B14FF48270FFF78AFFDD
:107F14004FF080430222C3F80823044B01201B685E
:107F2400BDE81040184710BD00010040203100207A
:107F34000401004000F1804000F5C040002382B0FD
:107F4400036003680193019B02B07047800000F155
:107F5400A040D0F8003723F44033C0F80037D0F8FD
:107F6400003743EA0141C0F8001770472DE9F04F8C
:107F740085B000245A4D01944FF48072012102F11E
:107F8400804303F5C04390B21B68012B06D1D5F89A
:107F940004330B4202D0FFF7CDFF0C430432B2F599
:107FA400907F4FEA4101EAD14E4B1B68012B0AD165
:107FB4004FF4BE70FFF7BEFF4FF0A04344F00044FF
:107FC400D3F81035019314F0FF0F1AD0464F002553
:107FD4000126344210D0AB0003F1804303F5C043C3
:107FE400D3F81005D3F8101557F8253023B1C1F391
:107FF4000141C0F3042098470135082D4FEA460695
:10800400E7D1002C64DA00224FF0FF33CDE90223DC
:10801400354D01274FF0000A344E54464FF0A04826
:1080240016F9012B531C46D0D2B222F0C0094FEAF4
:10803400D90104A8084402F0070310F804CC07FA95
:1080440003F31CEA030F36D005EB090C92099CF9E3
:1080540030C055F82CB0BBF1000F0AD1032A2AD145
:108064000DF1080E1EF801C04CEA030C0EF801C015
:1080740001E0032AF4D009F5E07110F80C0C58F86B
:1080840021101842C1F3014105D0022913D1032A5A
:108094000BD1114604E003290DD1032A05D1022195
:1080A4004846FFF753FF0134E4B2BBF1000F02D09E
:1080B40011464846D8470AF1010ABAF1040FAFD174
:1080C40034B14FF0A043019AD3F81035934202D152
:1080D40005B0BDE8F08F0193029B03939AE700BFBC
:1080E400006000407C61004028310020783100208D
:1080F400014B1B68184700BF843100200E4B984287
:1081040037B50D4602D0002003B030BD00230DF179
:1081140007008DF80730FFF741F8084B1C7914B9B4
:1081240001221D601A719DF80700FFF75BF8002C0F
:10813400E9D01120E8E700BF00200040843100208E
:10814400034B984201BF034B00221A601A71704717
:1081540000200040843100200023435082B0435863
:108164000193019B02B070470A4610B54FF48E711B
:10817400FFF7F2FF136A9168C95C136A0133136253
:10818400C0F81C1510BD024608B54FF49271006882
:10819400FFF7E2FF4FF484711068FFF7DDFF136807
:1081A40001221A6008BD8B690A4610B54FF4847128
:1081B40023B9FFF7D1FFD0F8183510BDFFF7CCFF76
:1081C400536AD168D0F81805C854536A013353620E
:1081D400F3E700001FB501238DF80030044BCDE90F
:1081E4000110D3E900126846904705B05DF804FB1E
:1081F4008C31002030B54C4AD2F8043313F4007F9C
:1082040085B015464FD0D2F82431002B4BD04FF413
:1082140092711046FFF7A0FF4FF40173C2F80833C0
:10822400424B93F8291009B9012151603E490222B9
:108234008DF80020D1F88024C1F8802403929A6933
:108244000292DA6801920022C3E906226846D3E961
:10825400001290473448D0F81C315BB133490A6AA4
:108264004B699A420A464BD291F82830002B47D1E9
:10827400FFF77AFF2C4AD2F8443193B14FF4A2713C
:108284001046FFF769FF294B93F8291009B1012122
:1082940011609A692AB100229A61586AD968FFF775
:1082A40099FF05B030BDD5F804335B07D2D5D5F8B6
:1082B4000831002BCED01D4C1B482146FFF773FF1D
:1082C400636AA2699A422346C4D1E269E1684AB169
:1082D4002369E3600023606AA261E3616362FFF7DC
:1082E40079FFB7E794F829200AB901226A600E4A97
:1082F4004FF40170C2F8080300229A61586AEEE74D
:108304004FF48E710848FFF727FF51690029B1D057
:108314000023029191688DF8003001915361684601
:10832400D2E900139847A5E7002000408C310020D3
:108334002DE9F8435A4B047991462C2202FB04326E
:10834400064692F82A200D469846002A40F0A3805B
:1083540054490068FFF7D2FE0746002840F09D808C
:1083640029683368481C0BD04FF0A04001228A4092
:10837400C0F8082501F5E0724FF0030C40F822C064
:108384006868421C1FBF00F5E0724FF0A04C4FF02C
:10839400000E4CF822E0AA6995F814C0C3F824250D
:1083A4006A7DBCF1010F4CEA0202C3F86C25C3F8E4
:1083B4001405C3F80C151DD1AA68511C1FBF02F582
:1083C400E0714FF0A0404FF0000C40F821C0E96884
:1083D400481C0BD04FF0A04C01208840CCF8080575
:1083E40001F5E0704FF0030E4CF820E0C3F80815D7
:1083F400C3F810252C23634308EB0302C2F804904E
:108404002A6948F80320B9F1000F31D04FF48E7176
:1084140030682D7FFFF7A0FE30684FF4A271FFF79C
:108424009BFE3268204BC2F80433120B53B2002B6C
:10843400A8BF03F160404FEA53134FEA4511BABF96
:108444001A4802F00F0500F561404FEA8303C9B2F0
:1084540003F16043B4BF415580F8001303F5614351
:1084640002F01F02012101FA02F2C3F880211A600E
:1084740033680422C3F800252C2303FB0483002261
:10848400C3E9062283F829205A61012283F82A20AD
:108494003846BDE8F8830827FAE71127F8E700BF54
:1084A4008C310020F98102008000020014ED00E00C
:1084B400F8B5047900682D4D0023C0F800352C234D
:1084C40003FB04535B6873B1294BC0F80833020BF8
:1084D40053B201215B0902F01F0201FA02F22033B8
:1084E400244941F82320D0F80C65D0F81415D0F8AD
:1084F4000835D0F810254FF0FF37BE42C0F8147588
:1085040018BF06F5E076C0F80C75C0F80875C0F819
:1085140010751EBF4FF0A0474FF0020C47F826C05D
:108524004E1C1FBF4FF0A04601F5E071022746F82C
:108534002170511C1FBF4FF0A04102F5E0720226CA
:1085440041F822605A1C1FBF03F5E0734FF0A042AC
:10855400022142F82310FFF7F3FD2C2303FB0454FC
:10856400002384F82A306360F8BD00BF8C310020FA
:108574008402020000E100E02DE9F843224F06796D
:108584004FF02C0909FB067480466569002D37D12C
:108594006261A16025624FF48E71006884F82850EE
:1085A400FFF7DAFDD8F80000012383602146FFF7C6
:1085B400DBFD6368A1462BBBD8F80050226A6369CF
:1085C4009A4212D3D8F80030D3F81C21002AFBD0E9
:1085D4000122DA6000202C2303FB0676002373615A
:1085E400BDE8F88394F8283043B9D5F81C31002B42
:1085F400F8D049462846FFF7B7FDDFE70F20EAE742
:108604001120EDE72846EBE78C3100200379044A7A
:108614002C2101FB03235869003018BF0120704747
:108624008C3100202DE9F843384E05792C2303FBC7
:10863400056307465C6824B103684FF40170C3F80E
:1086440008032C2303FB0563986950B1D8690028FB
:108654003ED024B13B684FF40172C3F804231120C7
:1086640034E09A61D9605862D8612C2303FB056316
:1086740093F829301BB910B93846FFF784FD4FF041
:108684002C0909FB05683868D8F80430002B34D16C
:108694004FF4A271FFF760FDC1463868D0F8243169
:1086A400D0F80821D0F84441B2B90CB9002BF4D069
:1086B4002C2202FB05650022AA611BBB24BB95F892
:1086C40029103B680122B1B11A600020BDE8F8838B
:1086D4001961DA610120C8E7002BE9D1002CE7D148
:1086E4004946FFF760FDD8F82430D8F818209A429C
:1086F400D3D82346DCE75A60E7E74FF40173C0F8A8
:108704000433E2E70320E1E70F20DFE78C310020A8
:108714000023435082B043580193019B02B0704739
:108724001FB501238DF80030054B8DF80800019129
:108734006846D3E90012904705B05DF804FB00BF1A
:10874400B83100207FB5384AD2F82461002E49D0D0
:1087540010464FF49271FFF7DBFF02238DF80030CF
:10876400D2F88034C2F880340393D2F83C358DF8C3
:1087740008302E4BDA6801920022C3E906226846CB
:10878400D3E900129047284AD2F8443173B14FF428
:10879400A2711046FFF7BCFF244B996931B1002147
:1087A4009961D2F83C05D968FFF7BAFF1E4AD2F89E
:1087B4002031ABB14FF490711046FFF7A9FF1B4B6A
:1087C400596969B1D2F84C158DF8081000229968DE
:1087D4008DF8002001915A616846D3E90012904750
:1087E40004B070BDD2F81031002BCCD04FF4887196
:1087F4001046FFF78DFF0D4BD2F83C05996988426E
:10880400C1D1DC69D96864B1D2F8005225F02005E1
:10881400C2F800521A699C61DA60DE61FFF780FFDA
:10882400B1E79C61FAE700BF00200040B8310020A6
:108834002DE9F8435E4B06799146242202FB063269
:10884400044692F820200D469846002A40F0AB805A
:1088540058490068FFF752FC0746002840F0A580FD
:1088640029682368481C0BD04FF0A04001228A409D
:10887400C0F8082501F5E0724FF0030C40F822C05F
:108884006868421C1FBF00F5E0724FF0A04C4FF027
:10889400000E4CF822E0AA6995F814C0C3F8242508
:1088A4006A7DBCF1010F4CEA0202C3F86C25C3F8DF
:1088B4000C15C3F814051DD1AA68511C1FBF02F57D
:1088C400E0714FF0A0404FF0000C40F821C0E9687F
:1088D400481C0BD04FF0A04C01208840CCF8080570
:1088E40001F5E0704FF0030E4CF820E0C3F80815D2
:1088F400C3F810252423734308EB0302C2F8049041
:108904002A6948F80320B9F1000F3BD04FF488716D
:1089140020682D7FFFF7FCFE4FF490712068FFF76D
:10892400F7FE4FF492712068FFF7F2FE20684FF4CF
:10893400A271FFF7EDFE22681F4BC2F80433120B3D
:1089440053B2002BA8BF03F160404FEA53134FEA20
:108954004511BABF194802F00F0500F561404FEA0E
:108964008303C9B203F16043B4BF415580F80013D7
:1089740003F5614302F01F02012101FA02F2C3F878
:1089840080211A6023680822C3F80025242303FBEE
:1089940006830022C3E906225A61012283F82020BB
:1089A4003846BDE8F8830827FAE71127F8E700BF3F
:1089B400B8310020498702001003020014ED00E0E2
:1089C400F8B5047900682D4D0023C0F80035242340
:1089D40003FB04535B6873B1294BC0F80833020BE3
:1089E40053B201215B0902F01F0201FA02F22033A3
:1089F400244941F82320D0F80C65D0F81415D0F898
:108A04000835D0F810254FF0FF37BE42C0F80C757A
:108A140018BF06F5E076C0F81475C0F80875C0F8FC
:108A240010751EBF4FF0A0474FF0020C47F826C048
:108A34004E1C1FBF4FF0A04601F5E071022746F817
:108A44002170511C1FBF4FF0A04102F5E0720226B5
:108A540041F822605A1C1FBF03F5E0734FF0A04297
:108A6400022142F82310FFF76BFB242303FB045479
:108A7400002384F820306360F8BD00BFB8310020C3
:108A84001003020000E100E001F06043B3F1005F75
:108A94002DE9F041074632D11C4B0679242505FB0C
:108AA400063598466C6964BB6A61A96000684FF436
:108AB4009071FFF72DFE4FF4AC713868FFF728FE74
:108AC4003B686A69A968C3F84415C3F848250122BC
:108AD4009A606A68BAB9D3F82011D3F8582149B911
:108AE400002AF8D00F20242303FB06860023736199
:108AF400BDE8F081002A14BF0F200020F3E7102006
:108B0400F6E71120F4E72046F2E700BFB831002071
:108B14000379044A242101FB03235869003018BF58
:108B240001207047B8310020F8B501F06043B3F17B
:108B3400005F04460F465FD10379304D242101FBC9
:108B44000351486820B121684FF40476C1F80863E2
:108B5400242101FB03539E6956B1D96900293AD0F7
:108B640020B123684FF40472C3F80423112031E0C8
:108B74009A61DF60DE614FF488712068FFF7C8FDF9
:108B84004FF4A2712068FFF7C3FD2368C3F834755E
:108B9400C3F838251EBB01221A602179242202FB66
:108BA4000152526812BBD3F81001D3F84421D3F810
:108BB4002441104302D1002CF5D00246242303FBA8
:108BC400015500239C4214BF032018469A42AB610E
:108BD40018BF0F20F8BD1F61DA610126CBE7D3F877
:108BE400002242F02002C3F80022D6E74FF40472B8
:108BF400C3F804230020EDE71020EBE7B831002090
:108C0400032813D8012A0BD1012908D100F10E023F
:108C1400D2B200EB40000C4B1A54002070470022E3
:108C24000129F6D04BB24BB1022901D0072070477D
:108C3400054B00EB400018444270EEE7024900EB9C
:108C4400400008448270E8E7DC310020032808B5BE
:108C540012D8FEF7AFFF800000F1A040D0F8003733
:108C640023F44033C0F80037D0F8003743F44033DE
:108C7400C0F80037002008BD0620FCE708B5012233
:108C840002210020FFF7BCFF08B1072810D10722FA
:108C940002210120FFF7B4FF08B1072808D1002101
:108CA4000A220846FFF7ACFF10B1072808BF0020CE
:108CB40008BD00000388102B10B502D0112B1ED064
:108CC40010BD1A4C2168B1B901220846FFF798FF7C
:108CD40008B1072824D1072202210120FFF790FFC1
:108CE40008B107281CD1042202210020FFF788FFC5
:108CF40008B1072814D1236801332360E0E70B4A45
:108D04001368013B1360002BDAD1FFF7B7FF00288B
:108D1400D6D0074B1B68002BD2D0BDE810401847B3
:108D2400034B1B68002BE6D09847E4E7EC310020A6
:108D3400E831002008B50020FFF788FF08B10628B5
:108D440006D10120FFF782FF10B1062808BF0020DA
:108D540008BD33DF704776DF70477ADF70477CDF0A
:108D640070477FDF70478FDF7047B1DF7047FDF7D3
:108D7400BDBF08B5FFF7DEFF08B1FDF7B7FFFFF78A
:108D8400E8FF18B1BDE80840FDF7B0BF08BD08B959
:108D9400FFF7EFBF704708B54FF0A04303224FF42D
:108DA4008055C3F830271C46C3F80855FDF7D0FC9E
:108DB4000028FBD1C4F808554FF47A7003F086F804
:108DC400FDF7C6FC0028FBD1C4F80C554FF47A70AB
:108DD40003F07CF8EAE700004FF0A043032280B5DB
:108DE400C3F85827C3F85C270022C3F83427354C4E
:108DF400C3F83827C3F83C27334B344EDFF8D08010
:108E0400E41AE408240444F0030437464FF0A04570
:108E1400D5F810353378012B40D141462046FDF773
:108E240001FE4FF400094FF48003C5F808351420FF
:108E3400C5F8089503F04AF8C5F80C95D5F810352F
:108E440059042FD54FF0A045D5F810351A042DD468
:108E54004FF40003C5F80835C82003F037F84FF481
:108E64008003C5F80C354FF0A045D5F810351B0428
:108E740020D54FF0A049D9F8105515F400451DD15F
:108E84004FF4800AC9F808A5322003F01FF84FF404
:108E94000003C9F80CA5C9F80C353D700A2003F08D
:108EA40015F8B3E7012003F011F8C7E7012003F038
:108EB4000DF8C9E7012003F009F8D6E7012003F013
:108EC40005F8D8E738D0020010D002008034002022
:108ED400C5DC02000388212B13B5044641D01FD8FA
:108EE400112B28D0132B44D0102B38D1294B2A48CE
:108EF4002A49C01AC008000440F00300FDF792FD9F
:108F04004FF0A0434FF48052C3F80C25244BA188A2
:108F14002448198001F07AFB08B3FDF7E7FE1EE050
:108F2400522B2ED0562B01D03B2B18D11321A088C5
:108F3400FFF711FFF0E7174B17481B49C01AC00889
:108F4400000440F00300FDF76DFD4FF0A0434FF423
:108F54008052C3F80825124B4FF6FF721A8002B0F4
:108F640010BD002301A98088ADF80430FFF7FBFE93
:108F7400D2E70B4800231A4685210088FFF7F1FE4B
:108F8400CAE7074800231A4619460088FFF7EDFE92
:108F9400C2E700BF10D0020038D00200CCDB0200D0
:108FA400BC2A002074340020D6DB02000C4B4A8813
:108FB4001B889A4212D10A8840F677239A420DD12F
:108FC400084A09488B880949801A033BC0089BB2A8
:108FD40000041A4640F00300FDF731BD704700BF9E
:108FE400BC2A002010D0020038D00200F6DB0200B8
:108FF40008B503784BB9054B3B211888FFF7ABFE46
:1090040018B1BDE80840FDF771BE08BDBC2A0020B8
:109014002DE9F843057806469DB9174B174C1849B6
:10902400DFF86080DFF86090E41AE408240444F078
:1090340003042046FDF7F6FC4FF0A047B38A9D4297
:1090440001D3BDE8F88333695B5D312B0AD14FF45A
:109054008053C7F80C3549460123204688F8003070
:10906400FDF7E0FC33695B5D302B04BF4FF48053A4
:10907400C7F808350135E1E710D0020038D0020006
:10908400D1DC02008034002003DD0200FDF72EBE97
:1090940008B50849084801F0A5F908B1FDF726FE0E
:1090A400F721054801F0B2F918B1BDE80840FDF711
:1090B4001DBE08BDB18F02005C34002038B50546E2
:1090C400F8B1C9B201F0D4FF0F49284603F0EBFA16
:1090D400A8B10E49284603F0E6FA07220446411DCA
:1090E4000B4803F000FB04F10F010722094803F0C9
:1090F400FAFA0124284601F089FF204638BD0446C7
:10910400F8E70124F9E700BF12DC020020DC0200CA
:10911400F1310020F931002010B5B0B080220021D7
:1091240010A803F009FB264B26482749274CC01AF0
:10913400C008000440F00300FDF774FC4FF47A709B
:1091440002F0C4FE40220021684603F0F5FA2048EC
:1091540001F03CFF01224FF47A71684601F0E6FE0B
:10916400642002F0B3FE40220021684603F0E4FAD2
:10917400184801F02BFF01224FF47A71684601F080
:10918400D5FE642002F0A2FE40220021684603F0CE
:10919400D3FA204601F01AFF01224FF47A7168468F
:1091A40001F0C4FE642002F091FE204601F00EFF9F
:1091B400642002F08BFE802110A8FFF77FFFBDE73B
:1091C40010D0020038D0020025DC02004DDC020081
:1091D40031DC02003EDC020000B56F4DAFB0642408
:1091E40045F001054FF47A40A847013CFAD14FF409
:1091F40000412046FDF752FA08B1FDF777FDFDF76F
:1092040083F9FEF707FDFDF7F4FD08B1FDF76EFDE8
:1092140001F0B6FB08B1FDF769FD002303A90120A5
:10922400039301F03BFC08B1FDF760FD03A801F0D6
:1092340003FD08B1FDF75AFD112358488DF8083095
:1092440003F0CFFA554982B202A8FFF788FD08B1AE
:10925400FDF74CFD0021082203A803F06DFA5049E4
:109264004FF0C87303A8CDE90313FFF776FD08B1E7
:10927400FDF73CFDFFF70CFF4A4B4B48039303A952
:1092840001F0B2F908B1FDF731FD0021042202A872
:1092940003F052FA454B4648029302A901F0B0FA92
:1092A40008B1FDF723FDAC22002103A803F044FA22
:1092B40002238DF80C304FF4A0633E4AADF80E3013
:1092C4000123ADF8583017928DF88830402244F2CB
:1092D4005063CDE9252303A9374B38482C9300F07C
:1092E400C7FB08B1FDF702FD0121344800F0BDFBC6
:1092F4001C22002103A803F01FFA00234FF420329C
:10930400CDE90332ADF81A304FF470228DF81C30D9
:109314002B4B0592089303222A4B8DF8182003A89F
:10932400099300F065FE08B1FDF7E0FC0321234832
:1093340000F01DFC08B1FDF7D9FC01F0A9FE224C98
:10934400224B2349E41AE408240444F003040025CE
:1093540002262046FDF766FB2B464FF400621D49AA
:109364001D48CDE9006502F0A7FB2B4640221B49AE
:109374001B48CDE9006502F09FFB2B46802219496A
:109384001948CDE9006502F097FB18492046FDF71E
:1093940049FB02F06BFCFEE7F0DB020056DC020046
:1093A40010003C00738D02007434002015900200FC
:1093B400C02A0020B82A0020938D02000432002025
:1093C400F58F02009190020038D0020010D0020004
:1093D40061DC02008ADC02001D91020093DC0200C1
:1093E400DD8D02009EDC02009B8D0200A8DC0200E1
:1093F4000369C1688B429DBF8268D21802F1FF32B3
:1094040003F1FF3394BF501A581A70472DE9F04105
:10941400D0E9027405463E1B4068964220448846C3
:10942400144404D903F05FF9EC60BDE8F0813246DE
:10943400E41B03F058F9224608EB06016868F1E7DB
:109444002DE9F843C5680646894617464FF00008DB
:109454003469B3687068A54228BFE418013C621BF4
:109464005C1BBC4228BF3C46944228BF1446494674
:109474002844224603F037F9B3682544AB4208BFB9
:1094840000253F1BA044A144F560E1D14046BDE85E
:10949400F883000010B5114C114AA2610223C4E9FB
:1094A4000433104BE361A2644FF400730E4A236249
:1094B400E264002310220D49A362E01D6362E362AB
:1094C400A3656365E365226503F069F908492046ED
:1094D40003F065F92023A37110BD00BF843400207C
:1094E4001BDD02000C350020FC34002024DD0200CA
:1094F40028DD0200F8B5184C182300FB033503FBE4
:1095040000402544C46A012C0F46164611D024B1EC
:10951400022C1BD000242046F8BD2846FFF768FF24
:10952400B042F8D3324639462846FFF76FFF344637
:10953400F1E72846FFF75CFF8642344628BF04461D
:10954400224639462846FFF761FFE4E72846BDE88E
:10955400F840FFF775BF00BF84340020FFF79ABFBF
:109564006DDF704779DF70477DDF704764DF7047D8
:109574002DE9F74F0C9CBDF834B0278800258046B0
:109584008A4691462E46B8F80020B2420BDC35B12B
:109594002288013AD21B92B2FF2A39D8DA55002028
:1095A40003B0BDE8F08FD8F8042052F826000190EB
:1095B40000220DF1030101A8FFF7D8FF0028EFD125
:1095C4009DF803204A4521D12288002D14BF002094
:1095D400022002EB09010144594519DC3DB901326D
:1095E40092B2228003F802A02288013222802288CB
:1095F4000DF103011A4401A8FFF7B8FF0028CFD1E9
:1096040021889DF803200A44228001250136BAE707
:109614000C20C5E72DE9F341089CBDF824501746FA
:10962400CDE9004502220646FFF7A2FF48B9102201
:1096340039463046CDE9084502B0BDE8F041FFF7B0
:1096440097BF02B0BDE8F0812DE9F04F00231688E2
:10965400138090F82D3085B007460D46144653B359
:10966400082E01D80C2028E102A8FFF779FF002872
:1096740040F0238113880822CA54238801339BB203
:109684001B222380CA542088013080B22080062205
:109694000DF10901284403F026F823889DF80820D9
:1096A40006339BB212F0FE0218BF01222380EA5453
:1096B400238801332380BB78FBB123880433B3426E
:1096C400D0D802A8FFF74EFF002840F0F680238888
:1096D4000322EA54238801339BB219222380EA54DB
:1096E4002388BDF8082001339BB2E9182380EA548B
:1096F400120A4A70238802332380FA789AB12388A5
:10970400D91CB142AED80221E954238801339BB25B
:1097140001212380E95423880B449BB22380EA541B
:1097240023880B4423807A68AAB12388D91CB142C8
:1097340098D8022192F90020E954238801339BB27E
:109744000A212380E954238801339BB22380EA54FD
:109754002388013323803B89002B40F0A2803B8A7D
:109764005BB1CDE900462B460722032107F1100027
:10977400FFF750FF002840F0A0803B8B5BB1CDE9A0
:1097840000462B461522142107F11800FFF742FF6B
:10979400002840F092803A6A002A40F09180D7F87D
:1097A4002480B8F1000F30D0B8F804302188981C18
:1097B4008A1C0244B2423FF655AFFE283FF652AF30
:1097C40003336B54238801339BB2FF222380EA5472
:1097D400238801339BB22380B8F80020EA54E918A7
:1097E400120A4A702088023080B22080B8F804201F
:1097F4005AB1D8F8081000296CD0284402F073FF3D
:109804002388B8F804201344238097F82C30002BC5
:1098140040F09B80387800284FD03B88012B59D0EA
:10982400228802F1020CB4453FF61CAF012805D191
:109834007B78023313449E42FFF414AF023EB61AFF
:10984400B6B202A905EB0C00ADF80860FFF78CFE78
:1098540098BB3978BDF80820022900F0BB807B78DA
:10986400934202D3B24240F2B380012940F0B48063
:109874009BB29E42C0F0B080ADF808300821BDF81C
:109884000830FE2B3FF6EEAE22880133AB5422881B
:10989400013292B22280A9542288134423800020EA
:1098A4000BE0CDE900462B460622022107F1080011
:1098B400FFF7B0FE00283FF452AF05B0BDE8F08FCB
:1098C400B4F800C00CF10603B3423FF6CBAE1188E6
:1098D400052901D80720F0E76FF4486E01EB0E0369
:1098E4009BB24FF27D3E7345F4D95388052BF1D9D1
:1098F4006FF44860181880B27045EBD94FF6FF70CA
:10990400814203D0834201D09942E3D8052305F86C
:109914000C30238801339BB212212380E95423881D
:1099240001339BB223801188E954E818090A417075
:10993400238802339BB223805288EA54E918120A1E
:109944004A7023880233238029E7BB6A002BC1D0E5
:109954004FF000094FF00C0A4FF0160B97F82C301B
:109964005FFA89F293427FF655AFB96A0AFB02F2B5
:1099740001EB0208B8F80430981CFE283FF672AEDA
:10998400208803332B54238801339BB2238005F8AA
:1099940003B0238801339BB223808A5AEA54E9181E
:1099A400120A4A702088023080B22080B8F804205D
:1099B4005AB1D8F8081000298CD0284402F093FE3C
:1099C4002388B8F804201344238009F10109C5E76A
:1099D400092154E7B242FBD9ADF808604EE770B5EF
:1099E400C0B14AB116880024B44203D305196D7876
:1099F4009D4208D0A14201D800200BE0055D01354D
:109A04002C44A4B2F0E7A142F6D9A31C1380005D54
:109A1400013880B270BD13B50023ADF8063013468B
:109A24000DF106020446FFF7DAFF10B1BDF8060097
:109A3400204402B010BD72DF704773DF704738B541
:109A4400012204460D46B0F83812D0F83402FFF76C
:109A5400E2FF00B1057004F13C0204F50D7104F15C
:109A64005400BDE83840FFF7E6BF80F83010704777
:109A7400F8B504460F46002975D0002873D091F834
:109A84007A301BB191F89830002B6ED1D7F8A03002
:109A9400042B6AD0D7F89C30042B66D007F17806E3
:109AA4000FCE4FF0000C251D84F802C00FC50FCE59
:109AB4000FC596E8070085E8070084F830C0D7F89A
:109AC400A4306363D7F8A830A3634FF6FF7504F599
:109AD4000D73C4F84432A4F848520722614604F2D4
:109AE4004A2002F029FE23780BB984F8545094F8E4
:109AF4002430002B14BFEE231F2304F15501C4F8B6
:109B04003412A4F8383204F50E723846FFF79CFD7F
:109B140040BB94F82430002B14BFEE231F2304F21F
:109B24004311C4F83C12A4F8403204F5107207F152
:109B34003C00FFF789FDA8B9A369A4F848304FF4A5
:109B440080720123A4F85020626920646264014693
:109B540084F83C3004F13C0204F15400FFF76BFF3D
:109B640000B92370F8BD0E20FCE70720FAE7F8B52A
:109B7400077804460D46002F00F0048100F24A26BF
:109B8400A17007220021304602F0D6FDE38813B10C
:109B9400A378012B04D0E3794BB1A378022B06D12F
:109BA400636BA3B1012284F85122082098473346FD
:109BB40004F5147113F8012F12B98B42FAD1174628
:109BC4006B1E032B52D8DFE803F0050B0F1284F849
:109BD4005132ECE7A3791BB194F8243003B95FB98F
:109BE400E3790BB1002F43D1237A002B42D1637A5E
:109BF400002B0CBF00250425636BA570002B3BD004
:109C0400033D012D38D86279002A35D094F85222C8
:109C140092BB84F85422012284F8532207209847E7
:109C240004F13C0518220021284602F085FDE36A70
:109C340094F82420581E0121022828BF0B4684F8DA
:109C44003C1084F8513032B1884296BFA36A84F83C
:109C5400521084F85230A178002384F8503004293B
:109C64001BD8DFE801F0770D223559000025C3E742
:109C74000225C1E70325BFE7002384F85332CFE769
:109C8400C4F84432C4E910630223012284F83C304E
:109C9400802384F83120A4F84830A378002B5CD1C9
:109CA400636B002B6AD1002067E00223002A84F84A
:109CB400313014BF0723032384F83C302369A4F80C
:109CC40048300023C4F84432E36826646364E4E75C
:109CD40063696364A369A4F8483012B1062384F865
:109CE4003C306379B3B194F852329BB994F854324E
:109CF40083B1022384F8503004212046FFF79FFEED
:109D04000028CAD1052384F8313004F50D73C4F852
:109D14004432C2E70323F6E7E3696364236AA4F8E1
:109D2400483012B1062384F83C30637983B194F847
:109D340052326BB994F8543253B1022384F8503040
:109D440004212046FFF77BFE0028A6D10623DAE78C
:109D54000423D8E784F831309FE72A46D4F8441224
:109D640004F15400FFF767FE38B994F8301094F802
:109D74005400FFF762FE002892D0F8BD94F8310039
:109D8400984790E70820F8E70388112B10B50C4694
:109D94000AD0262B1FD0102B05D1C37B012B02D157
:109DA4008388A1F8483210BD0022838881F85222AA
:109DB400B1F848229A42F6D10B79002BF3D1012154
:109DC4002046FFF7D4FE0028EDD0A36B002BEAD089
:109DD400BDE810401847037A013B012BE3D889788A
:109DE40005230131B1FBF3F303EB8303C91AC9B2B1
:109DF400E6E7704775DF704776DF70477ADF7047B4
:109E04007BDF7047034B1A8882420CBF1846002040
:109E1400704700BF28370020024B9B6903B11847E5
:109E2400704700BF0C37002037B585B22846FFF7CE
:109E3400E9FF034670B1164C017A227B91420BD2A2
:109E440000F10A012846FFF7D5FFE8B1112801D037
:109E5400FFF7E2FF03B030BD237C0022027243B15E
:109E64003B212846FFF7C8FF30F0080301D0FFF775
:109E7400D3FF6369002BEDD000228DF80420ADF8E8
:109E8400065001A89847E5E71A7A01321A72E1E709
:109E94000C37002013B50B46497A0F4C024669B9BA
:109EA400D4E901101C7A002C18BF01465868FCF74D
:109EB400CBFF08B1FFF7B0FF02B010BD002119724B
:109EC4006369002BF8D00121ADF806008DF8041069
:109ED40001A89847F0E700BF0C3700204B880288A0
:109EE4009A4213D842889A4210D380888A8840F2D2
:109EF400F313984294BF031AC31A934206D800F28C
:109F0400F310904234BF00200120704700207047B6
:109F14000388112B70B5014648D002D8102B1ED0EF
:109F240070BD122B52D0502BFAD12F4BC288DB8933
:109F34009A42F5D1038A022BF2D186883046FFF784
:109F440061FF05460028EBD001F1120000F05BF937
:109F540030BB6868FCF7D4FF0028E1D009E0C37B7C
:109F6400012BDDD14FF6FF70FFF74CFF054620B9FA
:109F74000420BDE87040FFF74FBF1C4A8E8806805E
:109F8400002303721368C5F80A300A30536843602B
:109F94001031FFF7A3FF144B6872DB89002BBFD18C
:109FA40029463046BDE87040FFF774BF8088FFF74C
:109FB40029FF04460028B3D04068FCF7A1FF08B18C
:109FC400FFF72AFF4FF6FF732380A9E78688304600
:109FD400FFF718FF05460028A2D008310A30FFF722
:109FE4007DFF6872DCE700BF0C3700203C3700209F
:109FF400F8B5064648B305460FCD154F3C460FC489
:10A0040095E8070084E807003068124B3B60B0B164
:10A01400FFF7F4FEC0B931680A681A604A685A60EA
:10A024000D480E4A4FF6FF7303800D4B40F8043F72
:10A034000021FCF7E1FE002818BF032004E01846C5
:10A04400FFF7DEFE0028EBD0F8BD0E20FCE700BFD2
:10A054000C3700203C370020283700202D9E0200BA
:10A064004437002073B50191019C06466CB100256C
:10A074002C46294601A8FDF7DEF818B106EB440387
:10A0840001349D800135142DF3D13046346002B083
:10A0940070BD00002DE9F04703888488112B8CB033
:10A0A40006463CD01A2B3FD0102B17D1274DAB6856
:10A0B400DB43009369686846FDF7E6F8009901A858
:10A0C400FFF7D0FF0DF108094FF00008019B9845F8
:10A0D40007D3132C13D90420FCF708FE0CB0BDE8F9
:10A0E400F08739F802AB00270137514605EB8700AA
:10A0F400FDF797F81D2FF7D108F10108E6E721468F
:10A104001348FDF785F821461248FDF781F8F37BE3
:10A11400012BE3D010482146FDF77AF8DEE70C481E
:10A124002146FDF77EF8D9E7057A0C482D09012D63
:10A13400214606D9FDF76CF8022D21460848F0D0D7
:10A14400EAE7FDF76EF821460548EAE764370020A0
:10A154006C370020683700207037002074370020E7
:10A16400783700201328014602D80248FDF763B867
:10A17400002070476837002010B50446FFF7F2FF4F
:10A18400002814BF2046142010BD70B5054616469D
:10A194000AB90E2070BD002313600028F9D00368AB
:10A1A400002BF6D0C38813F003040FD10846FFF741
:10A1B400E3FFC0B214280BD02B7983420AD9EB8871
:10A1C4002A6800FB032333602046E3E70720E1E726
:10A1D4000520DFE70420DDE7AADF7047002301380C
:10A1E4000B70042806D8DFE800F00306080A0C0008
:10A1F40011230B7070472123FBE73123F9E7122366
:10A20400F7E72223F5E7007800F001007047F0B586
:10A214008B7891B0002B0C4608BF01238DF80E30CB
:10A2240005460B88ADF80C3000211646684603221B
:10A2340002F082FA6946607CFFF7D0FF0DF101015C
:10A24400A07CFFF7CBFF9DF80230E27B62F3C303EF
:10A25400227C62F30413227B62F30003227D002A32
:10A2640014BF0222012262F3420300211C2209A826
:10A274008DF8023002F060FA637B13F0300F15D0D2
:10A2840002AF03220021384602F056FA0DF109010B
:10A29400E07CFFF7A3FF11238DF808309DF80A3006
:10A2A4000E97012262F342038DF80A30637B8DF826
:10A2B40024301422A37B8DF82530002104A802F059
:10A2C4003BFA03AB0493A388ADF81C30A368CDF824
:10A2D40014D01BB1E288ADF818200893A369002BB1
:10A2E4002ED001AF03220021384602F025FAA369DB
:10A2F4001A88ADF82C205A88187BADF82E203946E0
:10A304005A680A920D97FFF769FFA3690DF10501D9
:10A31400587BFFF763FFA2699DF80630917A61F3D9
:10A32400C303D17A61F30413117A927B002A61F397
:10A33400000314BF0222012262F342038DF80630A7
:10A34400E36903B10C93334604AA09A92846FFF72D
:10A3540043FF11B0F0BD90DF7047A5DF7047B5DF54
:10A36400704700007FB50023ADF80810ADF80A105F
:10A374006A4602A9064603930093ADF80430FFF73A
:10A38400EAFF054600B3124B124CE41AE408FDF749
:10A394009FFA240444F00104034632460E49204641
:10A3A400FCF74DFBBDF80020BDF8023052EA030172
:10A3B40003D00A492046FCF742FBBDF804201AB139
:10A3C40007492046FCF732FB284604B070BD00BFA5
:10A3D40010D0020058D002002FDD020079DD020007
:10A3E400B8DD020080B14FF0F7130360FB23037163
:10A3F400F723C3801723038141F6FB320023016155
:10A4040043818281184670470E20704730B1A1F114
:10A414001703E02B04D80180002070470E207047FA
:10A424000720704713B5034680880C46A0B91A88E4
:10A43400232A00F0A48011D8102A22D0112A51D046
:10A44400A37A4BB1E1880020FFF787FF002840F092
:10A454009C804FF48073638102B010BD3A2A4AD0C5
:10A46400552A60D0242AEBD11A7A0B694A73002B3F
:10A47400E6D04DF67A21ADF8040000918DF8042061
:10A4840079E0DB7B0A790A73012B13D0022B14D0F9
:10A49400E18823898B4205D20020FFF75EFF70B963
:10A4A4000123E372217B637B8B42C9D20020FFF737
:10A4B40059FFC5E70B88E380EAE74B88FBE71128DF
:10A4C40002D10123A372EDE7FDF702FA374A384BB4
:10A4D40038499B1ADB081B04024643F00100FCF7D1
:10A4E400A5FADFE7F723CB8017230B8141F6FB3373
:10A4F40048818B81A4E75B89CA88934228BF1346AD
:10A50400172B0A6938BF17230B814AB1C97A39B1AD
:10A5140040F677210091ADF8043069462046904713
:10A52400002363818CE7DB88C988A072172B38BFAE
:10A5340017238B4228BF0B462381FFF710FF60B11E
:10A54400FDF7C6F9194A1A4B1B499B1ADB081B0471
:10A55400024643F00100FCF769FAE37A002B7FF42A
:10A564006FAF2369002B3FF46BAF40F67722009264
:10A574002289ADF8042069462046984760E7197A95
:10A58400237B994228BF194691E711283FF464AF11
:10A59400FDF79EF9054A064B06499B1ADB081B0486
:10A5A400024643F00100FCF741FA55E710D00200DF
:10A5B40058D002000EDE02003FDE0200B0DF70471A
:10A5C40066DF7047034610B500214088FFF7F8FFA7
:10A5D400024608B91A7210BD112801D10122F9E707
:10A5E4005B68BDE81040184760B159B10378DE2BB1
:10A5F4000AD00B684360DE2303704FF6FF73438079
:10A60400002070470E2070470820704728B1037857
:10A61400DE2B04D14180002070470E2070470820B3
:10A624007047F0B5054685B00C46F1B1E8B10B783A
:10A63400DE2B1AD182884B889A4204D10B7A13B14B
:10A644000846FFF7BFFF2B88112B32D0512B0ED0B9
:10A65400012B0AD12B7A012B07D1A9886288914258
:10A6640003D123722046FFF7ADFF05B0F0BDAE88DD
:10A674006388B342F9D1AF79022FF6D1AD7B2B1F9A
:10A68400022BF2D800211022684602F055F8052D5D
:10A6940014BF4FF4C0730023694630468DF8007030
:10A6A400ADF80430FFF78AFF0028DED063689847CE
:10A6B400DBE76388AA889A4204BF4FF6FF7363807E
:10A6C400D3E7A8DF7047ADDF704762DF704770B52E
:10A6D40005468AB00C46002962D0002860D0038861
:10A6E400502B37D0572B72D0102B59D181886069E9
:10A6F400002601AA0196FFF748FD082231460DEB1A
:10A70400020002F019F8022302AA218AA888CDF8CF
:10A714000CD00293FFF7D7FF002841D1A369002B87
:10A724003ED00398FFF76FFD002839D0019B0BB191
:10A7340001221A701822002104A801F0FDFF02234F
:10A744008DF81030AB88ADF81830019B0594079351
:10A75400A36923E08188606902AAFFF716FD182225
:10A76400002104A801F0E8FFAB88ADF81830218976
:10A77400EB88029A05949942079218D12E8A022EE8
:10A7840015D16AB105F11200FFF73DFD029B48B1F6
:10A7940001221A708DF81060A3690BB104A89847C0
:10A7A4000AB070BD187003238DF81030F4E7A28945
:10A7B4009A42F5D1A369002BF2D000228DF8102023
:10A7C40005F1120208922A8AADF82420E6E781886E
:10A7D400606902AAFFF7D9FC01460028E0D1029B78
:10A7E4001B78002BDCD0182204A801F0A5FF01235C
:10A7F4008DF81030AB88ADF818300594029BA6E7AD
:10A80400F0B5384B8FB002AA04460E4603F1100C83
:10A81400174618685968154603C5083363452A4620
:10A82400F7D1002C5BD0002E59D03368A3612146A8
:10A834003846FFF74AFF00284FD12246012512F877
:10A84400023B8DF8063001A92846ADF80450FFF705
:10A8540038FF002841D10146202206A801F06CFFF0
:10A8640022460223ADF8183012F80C3B8DF81A304A
:10A87400BDF824301C4E6088079603F4734343F4F8
:10A8840040632B4306A9ADF824308DF829508DF888
:10A894002A50FFF7BCFC00BB0146202206A801F0A9
:10A8A4004BFF22460323ADF8183012F8043B8DF811
:10A8B4001A30BDF824306088079603F46F4343F4DC
:10A8C40080532B43ADF8243006A940F201138DF8D0
:10A8D4002950ADF82A30FFF79AFC0FB0F0BD0E20D6
:10A8E400FBE700BF7BDE0200F400010010DF7047CD
:10A8F40013B5044609496846FCF7B6FF019808B940
:10A9040002B010BDD0E900312046984718B168461E
:10A91400FCF7B4FFF2E71120F2E700BF98DE020073
:10A9240013B5044607496846FCF79EFF019B0BB923
:10A9340002B010BD2046D3E9002190476846FCF7D9
:10A944009DFFF3E7B0DE02000B4991F816335A0974
:10A95400EC231341DB0706D5084B9A683AB94FF448
:10A9640080030B60704742F20200FCF7BFB91A681B
:10A9740042F480021A60704700E100E0F4300020E5
:10A98400F7B5194F3C7864BB184E01252046357045
:10A99400FFF7AEFF112821D02046FFF7C1FF144B6B
:10A9A4008DF80340186801900DF10300FCF7F6FBE5
:10A9B400104901A8FFF79AFF0446B0FA80F0400955
:10A9C40038709DF80300FCF70DFC3CB90A4B347059
:10A9D4001C70FFF7B9FF2846FFF7A2FF204603B01B
:10A9E400F0BD0824FAE700BFDD370020DC37002083
:10A9F40093DE02000D6D0200DE370020014B187853
:10AA0400704700BFDD37002007B508496846FCF7EA
:10AA14002BFF019B13B903B05DF804FBD3E90020BD
:10AA240090476846FCF72AFFF3E700BFA4DE020064
:10AA3400FFF7EABF60DF704769DF704761DF704787
:10AA440030B5114DADF5017D4FF4FA740DF10201ED
:10AA540003A8ADF80240FFF7F1FF70B9294601A839
:10AA6400FCF702FF029B002BF0D003A8D3E90021DE
:10AA7400904701A8FCF702FFF4E7052801D0FCF792
:10AA840035F90DF5017D30BD34E10200024B1B7830
:10AA94000BB1FFF7D5BF7047DF37002030B505464F
:10AAA40085B00C46002900F0B3805A4B0B600C2291
:10AAB400002101A801F040FE01238DF80630226830
:10AAC4008DF80450062301A92020ADF80830FFF7C3
:10AAD400B3FF60B1FCF7FCFE4F4A504B50499B1A40
:10AAE400DB081B04024643F00100FBF79FFF0C2226
:10AAF400002101A801F020FE01238DF80530226811
:10AB0400002301A94020ADF80630FFF795FF60B19E
:10AB1400FCF7DEFE404A414B42499B1ADB081B040A
:10AB2400024643F00100FBF781FF0C22002101A83B
:10AB340001F002FEF72322688DF8045001A92320B6
:10AB4400ADF80630FFF778FF60B1FCF7C1FE324A7A
:10AB5400324B35499B1ADB081B04024643F00100C3
:10AB6400FBF764FF0C22002101A801F0E5FD0120A0
:10AB740022688DF8040001A9FFF75EFF60B1FCF7BD
:10AB8400A7FE254A254B29499B1ADB081B040246CC
:10AB940043F00100FBF74AFF0C22002101A801F059
:10ABA400CBFD4FF4B0632268019301A9A120FFF704
:10ABB40043FF60B1FCF78CFE174A184B1C499B1AE3
:10ABC400DB081B04024643F00100FBF72FFF0C22B5
:10ABD400002101A801F0B0FD9DF8043022686FF354
:10ABE400000301A9A0208DF80430FFF725FF68B108
:10ABF400FCF76EFE084A094B0E499B1ADB081B043E
:10AC0400024643F00100FBF711FF002005B030BD00
:10AC14000E20FBE7982A002010D0020068D0020022
:10AC2400C4DE02000ADF020056DF02009DDF0200DC
:10AC3400E9DF02003AE00200F8B506460768FFF7CC
:10AC4400F9FE3368BB4205461DD9194B194C1A4904
:10AC5400E41AE408240444F002042046FBF7E2FE6C
:10AC6400336816493A462046FBF7E9FE4FF0805315
:10AC74003268D3F80C3112499B0203F100539A1A3B
:10AC84002046FBF7D3FE25B90E4B01221A70284645
:10AC9400F8BD2846FCF71CFE054A064B0A499B1AD8
:10ACA400DB081B04024643F00100FBF7BFFEEEE79E
:10ACB40010D0020068D002008DE00200BCE0020067
:10ACC400EDE00200DF37002017E102004BDF7047A0
:10ACD4001FB50D4C01A8FFF7F9FF70B9214602A872
:10ACE400FCF7C2FD039B002BF4D00198D3E90021AB
:10ACF400904702A8FCF7C2FDF4E7052801D0FBF752
:10AD0400F5FF04B010BD00BF4CE10200037813B599
:10AD14001BB1012B1BD002B010BD0F4C2278022AAC
:10AD240007D10DF10700FCF7E7F99DF8070000F0E3
:10AD340065F82378032BEED10DF10700FCF7DCF95D
:10AD44000028E8D19DF8070000F01EFAE3E7406808
:10AD5400FBF7CCFFDFE700BFE0400020F0B58BB08D
:10AD64000F4616461D460446FCF704FA0F4B0093A3
:10AD74004FF4006301930E4B029300224FF480734F
:10AD8400CDE90622ADF8202003930A4A099506234B
:10AD9400694604A8CDE90476FCF756F908B1FBF737
:10ADA400A5FF054B1C700BB0F0BD00BFE0370020C1
:10ADB400E03F002011AD0200E040002038B5054D11
:10ADC400044645F001054FF47A40A847013CFAD106
:10ADD40038BD00BFC0E1020070B504464618A64263
:10ADE40001D1284670BD2078FCF79CF9054618B1BE
:10ADF4001128F8D0FBF77AFF0134F0E70D4A0E4929
:10AE04001388C8540D48013301889BB2B3F5C86F49
:10AE140001F10101138089B204BF00231380B1F54D
:10AE2400C86F018004D100231380054A0380138076
:10AE3400704700BF664D002021470020624D00206E
:10AE4400644D00204FF0A04303224FF48051C3F817
:10AE54003027C3F808154FF48031C3F84027C3F8EE
:10AE64000C154FF48021C3F84827C3F80C15C3F818
:10AE74004C27704770B51B4B1B4C1C49E41AE40863
:10AE8400240444F003044FF0A0452046FBF7CAFD18
:10AE94004FF48033C5F808354FF400264FF4FA60B8
:10AEA400FFF78CFFC5F808654FF4FA70FFF786FFCB
:10AEB400C5F80C654FF4FA604FF48026FFF77EFF67
:10AEC400C5F808656420FFF779FFC5F80C654FF4F1
:10AED400FA70FFF773FF20460549BDE87040FBF7A1
:10AEE400A1BD00BF10D0020038D002009AE10200D8
:10AEF400A6E102000A4A118810B569B1094C0A4852
:10AF04002388C05C01339BB2B3F5C86F08BF00232C
:10AF140001392380118010BD4FF0FF30FBE700BFE3
:10AF2400624D0020644D0020214700202DE9F84F98
:10AF340080460C4691460AB3204801F052FC204B4F
:10AF44001B78012B074615D04FF4C86200211D4819
:10AF54001C4EDFF868B001F0EFFB4FF0000AFFF77A
:10AF6400C9FF00280EDA0120FFF728FF013CA4B234
:10AF740055462CB94FF0FF30BDE8F88F1248DCE796
:10AF8400AA46ECE70AF1010506F80A00B8F1000F39
:10AF9400EFD0B9F1000F0ED05946304601F083FBD3
:10AFA4000028E6D0AF4204D22A460649404601F0C2
:10AFB4009AFB0020E0E70449EFE700BFB5E1020097
:10AFC400F0310020E1400020B2E1020010B5ADF5FF
:10AFD400007D04464FF400720021684601F0ACFB8A
:10AFE40074B14FF400720021684601F0A5FB0649D4
:10AFF4002246684601F031FBC1B26846FFF7ECFE19
:10B004000DF5007D10BD00BF2ED1020030B58FB00C
:10B0140032220446002101A801F08EFB00221346CF
:10B02400E15C19B12C2919D10133B2B1234401A82F
:10B03400002213F8011B551C91B90EAB1A4420468B
:10B0440002F8341C8022002101F076FB2A4601A973
:10B05400204601F048FB0FB030BD01220133DFE789
:10B064004529EAD05729E8D000F8011B2A46E0E731
:10B0740010B504460548FFF7A9FF204600224FF407
:10B08400FA71BDE81040FFF751BF00BFC6E10200EE
:10B0940000B591B0FFF7D6FEFFF7ECFE314B324816
:10B0A4003249C01AC008000440F00300FBF7BAFCA0
:10B0B4004FF46B03062208210220FFF74FFE4022C3
:10B0C4000021684601F038FB2948FFF77FFF012281
:10B0D4004FF47A716846FFF729FF0220FFF76EFEEE
:10B0E4002448FFF773FF01224FF47A716846FFF793
:10B0F4001DFF0220FFF762FE1F48FFF767FF0122D2
:10B104004FF47A716846FFF711FF0220FFF756FEED
:10B114001A48FFF75BFF01224FF47A716846FFF784
:10B1240005FF6420FFF74AFE1548FFF74FFF012291
:10B134004FF47A716846FFF7F9FE0220FFF73EFEEE
:10B144001048FFF743FF01224FF47A716846FFF776
:10B15400EDFE4FF47A70FFF731FE002011B05DF878
:10B1640004FB00BF10D0020038D0020064E10200EA
:10B174006DE1020031DC020070E102007CE10200BA
:10B1840085E1020090E102007047000038B54307F2
:10B1940004461CBF20F00704083400F097FD0C4B54
:10B1A4001A681AB90B4A22F007021A600A490A6897
:10B1B40044F6F7701444844208D8A24206D21D68AB
:10B1C4000C60154400F016FE284638BD0025F9E74A
:10B1D400684D0020744D00206C9D0020704700F1E4
:10B1E40008034FF0FF324360C0E9022303610023E8
:10B1F4000360704700230361704743684B609A689B
:10B204008A609A6851609960036808610133036039
:10B2140070470A68531C30B50AD103695A684A60FA
:10B2240091608B605960036808610133036030BD2D
:10B2340000F108035C6825689542EFD82346F9E7D6
:10B24400D0E9011203698A6051605968814208BFDC
:10B254005A60002202611A68013A1A60186870473D
:10B26400402383F31188FEE74FF0807340E9021313
:10B27400054B40F80C3C6FF0020340F8202C40F8DA
:10B28400243C4438704700BF65B202000F4C08B537
:10B29400E02384F8223000F06FF80D4B00221A608E
:10B2A400D4F888300B4A43F47003C4F888305368E8
:10B2B40043F040435360236943F01003236100F0DB
:10B2C400FDF8402383F31188FEE700BF00ED00E0A2
:10B2D400709D002030EF00E0402383F31188024A80
:10B2E4001368013313607047709D0020034A13688C
:10B2F400013B13600BB983F311887047709D0020E4
:10B3040073B51A4B00221A601B680193019BEFF37B
:10B314001186402383F31188154BD3F80445C3F8F1
:10B32400002103F580731B680093009B00F0D6FC9A
:10B33400201A20F07F4424F0010020B100F000FF27
:10B34400022818BF0124002514F1FF3409D225B1C5
:10B35400084B4FF080525A6040BF86F3118802B008
:10B3640070BD00F0CFFC0543EEE700BF4011014083
:10B374000010014000ED00E008B50020FCF766FC79
:10B384000A4B0B491F22C3F808250122C3F80423E2
:10B394000A601A600222C3F84423064BE02283F8B1
:10B3A40011234FF400321A6008BD00BF00100140A1
:10B3B4000810014000E100E0F0B5054685B0EFF368
:10B3C400108072B6364CA36883B90123A360354B51
:10B3D4003549D3F880200A402260C3F88010D3F89E
:10B3E400842062604FF0FF32C3F8842000B962B653
:10B3F4002E4FD7F8046500F089FE3B4600283ED066
:10B404002B4A954294BF7219B21822F07F4201214F
:10B41400C7F80813C7F84025264A002111601168AF
:10B42400019101994FF48031C7F80413BFF34F8F92
:10B434003DB11C4920BFD1F80051D1F80401284383
:10B44400F8D04FF48031C3F808130021116012685A
:10B454000392039A184A116012680292029A012216
:10B46400C3F80423D3F804050E4B801B4FF40032B9
:10B4740030F07F40C3F8802101D000F03BFCA3688A
:10B484005BB1EFF3108272B6064B216819606168F4
:10B4940059600023A36002B962B605B0F0BD00BFD5
:10B4A400F430002000E100E0FC06FFBD0010014084
:10B4B400FDFFFF00401101400011014007480068F2
:10B4C40080F3088862B661B6BFF34F8FBFF36F8F06
:10B4D4004FF4F07080F3118800DF00BF00600200B9
:10B4E400064B19680868B0E8F04F80F30988BFF389
:10B4F4006F8F4FF0000080F311887047849D002007
:10B50400EFF30980BFF36F8F144B1A681EF0100F0E
:10B5140008BF20ED108A20E9F04F10604DF8043D7B
:10B524004FF0400080F31188BFF34F8FBFF36F8F4C
:10B5340000F026FD4FF0000080F3118808BC196864
:10B544000868B0E8F04F1EF0100F08BFB0EC108A86
:10B5540080F30988BFF36F8F704700BF849D00207C
:10B5640010B50446FFF7B8FEA46BFFF7BFFEB4FAAC
:10B5740084F0400910BD70B51546026C866B044614
:10B5840042B905689DB9406800F0EAFD656001367E
:10B59400A66370BD6DB9806801F0A5F8A368226C3C
:10B5A40013446268A360934201D32368A36000201C
:10B5B400EDE7C06801F097F8236CE26821685B420C
:10B5C4001A448A42E2603EBF62689B18E360022D1F
:10B5D400EDD10EB1013EEAE73046D8E7034610B498
:10B5E4001A6C084662B1D9685C681144A142D960FA
:10B5F40024BF1968D960D9685DF8044B01F073B8A9
:10B604005DF8044B704770B50446FFF765FE94F887
:10B61400455004F124066DB2002D14DCFF2384F898
:10B624004530FFF763FEFFF757FE94F8445004F1EA
:10B6340010066DB2002D12DCFF2384F84430BDE8FF
:10B644007040FFF753BE636A002BE7D0304600F02A
:10B65400E9FC08B100F054FD013D6DB2DCE723695B
:10B66400002BE9D0304600F0DDFC08B100F048FDC5
:10B67400013D6DB2DEE7000038B504460D46FFF724
:10B684002BFED4E90F302268A2604343D1181B1A61
:10B6940013446160E3600021FF23A16384F8443014
:10B6A40084F845309DB923696BB104F1100000F0B2
:10B6B400B9FC40B10A4B4FF080525A6040BFBFF30F
:10B6C4004F8FBFF36F8FFFF711FE012038BD04F1D8
:10B6D4001000FFF784FD04F12400FFF780FDF2E77A
:10B6E40000ED00E070B50646484348300D46FFF7CC
:10B6F4004DFD044648B155B100F148032360C4E947
:10B704000F6501212046FFF7B7FF204670BD0346B1
:10B71400F4E700002DE9FF470026DFF8F4900192DA
:10B7240004468A461F46B046FFF7D6FDA26BE36B7C
:10B734009A4201D3022F1AD13A4651462046FFF7C6
:10B744001AFF636A1BB104F1240000F06BFC40B1E2
:10B754002F4B4FF080525A6040BFBFF34F8FBFF35F
:10B764006F8FFFF7C3FD012004B0BDE8F087019D92
:10B774001DB9FFF7BBFD0020F6E716B902A800F0DB
:10B784008BFCFFF7B3FD00F0A1FAFFF7A5FD94F8D9
:10B794004430FF2B08BF84F8448094F84530FF2BD5
:10B7A40008BF84F84580FFF7A1FD01A902A800F0B5
:10B7B4007FFC30BBFFF790FDA26BE36B9A420ED186
:10B7C400FFF794FD019904F1100000F007FC2046F6
:10B7D400FFF719FF00F00EFB48B10126A4E7FFF7BD
:10B7E40085FD2046FFF70FFF00F004FBF5E74FF05F
:10B7F4008053C9F8043040BFBFF34F8FBFF36F8F3E
:10B80400EBE72046FFF7FFFE00F0F4FAB3E700BFD2
:10B8140000ED00E0F8B505461746EFF31186402227
:10B8240082F31188806BEA6B904201D3022B1ED104
:10B8340095F845401A4664B22846FFF79CFE631CFF
:10B8440010D16B6A0BB9012009E005F1240000F066
:10B85400E9FB0028F7D0002FF5D00120386086F3EB
:10B864001188F8BD013464B285F84540EBE7002047
:10B87400F5E700002DE9F04385B00026DFF8E490F9
:10B884000192044688463746FFF726FDA56BDDB1D5
:10B8940041462046013DFFF7A1FEA56323696BB134
:10B8A40004F1100000F0BEFB40B12E4B4FF080526B
:10B8B4005A6040BFBFF34F8FBFF36F8FFFF716FD82
:10B8C400012005B0BDE8F083019D1DB9FFF70EFD11
:10B8D4000020F6E716B902A800F0DEFBFFF706FD2C
:10B8E40000F0F4F9FFF7F8FC94F84430FF2B08BF9C
:10B8F40084F8447094F84530FF2B08BF84F84570F1
:10B90400FFF7F4FC01A902A800F0D2FBF8B9204625
:10B91400FFF726FEA8B1019904F1240000F05EFBB4
:10B924002046FFF770FE00F065FA40B94FF08053EF
:10B93400C9F8043040BFBFF34F8FBFF36F8F0126A8
:10B94400A2E72046FFF75FFE00F054FAF7E720462F
:10B95400FFF759FE00F04EFA2046FFF701FE0028DB
:10B96400EDD0B5E700ED00E0054B1A6812B19A6816
:10B974002AB9012243F8321003EBC203586070471E
:10B98400749D002070B504460D461646FFF7A4FCCE
:10B9940094F84430FF2B04BF002384F8443094F817
:10B9A4004530FF2B04BF002384F84530FFF79EFC8D
:10B9B400A36B2BB93246294604F1240000F01EFB88
:10B9C4002046BDE87040FFF71EBE0000094B0A4A3E
:10B9D4001B681268D06A58B9084A1268012A08D844
:10B9E400012B06D8064B1868064B1B68C01A704713
:10B9F40000207047E09D0020849D0020909D002041
:10BA0400109E0020589E0020064A13681968064BB1
:10BA140019B94FF0FF321A6070471268D268D268C1
:10BA24005268F8E7889D0020109E0020F8B51B4B53
:10BA34001B4E1C680546306804300F46FFF700FCB7
:10BA4400334640B93168174EC96A326801208840CC
:10BA540022EA000232606A1C07D137B11968124821
:10BA64000431BDE8F840FFF7C8BB1A686419546094
:10BA740007D30E4A10681968BDE8F8400431FFF78F
:10BA8400C8BB0B4A106819680431FFF7C2FB094BA5
:10BA94001A68A24288BF1C60F8BD00BF589E0020EF
:10BAA400849D0020E09D0020309E00208C9D00207D
:10BAB400889D0020109E00202DE9F84F96008146B5
:10BAC40030460D469A46FFF761FB0746002800F012
